:100000000C9470000C9464040C943D040C949800BF
:100010000C9498000C9498000C9498000C94980000
:100020000C9498000C9498000C9498000C949800F0
:100030000C9498000C9498000C9498000C949800E0
:100040000C94F3030C9498000C94B1040C948B045E
:100050000C9498000C9498000C9498000C949800C0
:100060000C9498000C949800CD00D300D900D300D4
:10007000F100E500CD00CD00E500F100D300D9008E
:10008000D300CD000000000023002600290000005E
:100090000000240027002A0000000000250028009E
:1000A0002B000404040404040404020202020202F9
:1000B000030303030303010204081020408001022C
:1000C00004081020010204081020000000080002AB
:1000D0000100000304070000000000000000E3042A
:1000E00011241FBECFEFD8E0DEBFCDBF11E0A0E0EE
:1000F000B1E0E0EFFEE002C005900D92AA34B10736
:10010000D9F722E0AAE4B1E001C01D92AB33B207F7
:10011000E1F710E0C0E7D0E004C02197FE010E94A3
:100120006B07CF36D107C9F70E941B050C947607E1
:100130000C940000A0914A01B0914B011696ED91EC
:10014000FC91179720811896ED91FC911997908159
:100150001D968C911D9789231F964C911F97E42F14
:10016000E3701C969C911C97922309F0E460811126
:10017000E8608E2F90E095958795959587951F96C9
:100180008C931F974E2F50E0FA013197EE30F10516
:1001900040F5EC5CFF4F0C946B0751968D919C9150
:1001A000529701970BC051968D919C915297019651
:1001B00011C051968D919C915297029752969C93A3
:1001C0008E93519750961C92089551968D919C91C3
:1001D0005297029652969C938E93519781E0509637
:1001E0008C9308958230D8F4E82FF0E0EE0FFF1FD3
:1001F000E050FF4F2AE930E031832083813041F025
:10020000809169008C7F816080936900E89A0895ED
:1002100080916900837F846080936900E99A0895E2
:1002200090E0FC01E653FF4F2491FC01EA54FF4F9C
:100230003491FC01EE55FF4FE491EE2309F43CC0EC
:10024000222339F1233091F038F42130A9F0223003
:1002500001F584B58F7D12C0273091F02830A1F0D0
:100260002430B9F4809180008F7D03C0809180009C
:100270008F77809380000DC084B58F7784BD09C0CF
:100280008091B0008F7703C08091B0008F7D809304
:10029000B000F0E0EE0FFF1FE856FF4FA591B491BC
:1002A0009FB7F894611104C08C913095382302C037
:1002B000EC913E2B3C939FBF0895CF93DF9390E04A
:1002C000FC01EA54FF4F2491FC01EE55FF4F84914D
:1002D000882361F190E0880F991FFC01E257FF4FDE
:1002E000C591D491FC01E856FF4FA591B4916111DD
:1002F00009C09FB7F8948881209582238883EC9168
:100300002E230BC0623061F49FB7F8948881322F9E
:10031000309583238883EC912E2B2C939FBF06C0AE
:100320008FB7F894E8812E2B28838FBFDF91CF9170
:1003300008951F93CF93DF93182FEB0161E00E9484
:100340005D01209711F460E004C0CF3FD10539F47E
:1003500061E0812FDF91CF911F910C941001E12F6B
:10036000F0E0E653FF4FE491E330F9F048F4E13078
:10037000B9F0E230A1F584B5806284BDC8BD34C057
:10038000E730E9F0E83019F1E43049F58091800078
:10039000806280938000D0938B00C0938A0024C039
:1003A00084B5806884BDC7BD1FC08091800080680F
:1003B00080938000D0938900C093880015C08091FD
:1003C000B00080688093B000C093B3000DC08091EE
:1003D000B00080628093B000C093B40005C0C03804
:1003E000D1050CF0B5CFAFCFDF91CF911F9108951C
:1003F0003FB7F8948091820190918301A09184018C
:10040000B091850126B5A89B05C02F3F19F0019634
:10041000A11DB11D3FBFBA2FA92F982F8827820F8A
:10042000911DA11DB11DBC01CD0142E0660F771FDA
:10043000881F991F4A95D1F708958F929F92AF9286
:10044000BF92CF92DF92EF92FF920E94F8014B0190
:100450005C0188EEC82E83E0D82EE12CF12C0E949E
:10046000F801DC01CB0188199909AA09BB09883E6A
:100470009340A105B10598F321E0C21AD108E10823
:10048000F10888EE880E83E0981EA11CB11CC114EF
:10049000D104E104F10419F7FF90EF90DF90CF90C1
:1004A000BF90AF909F908F9008950895CF92DF9264
:1004B000EF92FF920F931F93CF93DF936C017A011A
:1004C0008B01C0E0D0E0CE15DF0581F0D8016D9141
:1004D0008D01D601ED91FC910190F081E02DC601D6
:1004E0000995892B11F02196EECF7E01C701DF918E
:1004F000CF911F910F91FF90EF90DF90CF900895D3
:10050000089580E090E00895FC01538D448D252FDF
:1005100030E0842F90E0821B930B541710F0CF969D
:10052000089501970895FC01918D828D981761F0CF
:10053000828DDF01A80FB11D5D968C91928D9F5F1A
:100540009F73928F90E008958FEF9FEF0895FC01C5
:10055000918D828D981731F0828DE80FF11D858D78
:1005600090E008958FEF9FEF0895FC01918D228D0B
:10057000892F90E0805C9F4F821B91098F73992790
:10058000089586E891E00E94B50221E0892B09F4E4
:1005900020E0822F0895FC01848DDF01A80FB11D9A
:1005A000A35ABF4F2C91848D90E001968F739927A9
:1005B000848FA689B7892C93A089B1898C91837087
:1005C00080648C93938D848D981306C00288F38980
:1005D000E02D80818F7D80830895EF92FF920F93AD
:1005E0001F93CF93DF93EC0181E0888F9B8D8C8DDF
:1005F000981305C0E889F989808185FD26C0F62E0B
:100600000B8D10E00F5F1F4F0F731127E02E8C8DA5
:10061000E8120CC00FB607FCFACFE889F98980818F
:1006200085FFF5CFCE010E94CB02F1CF8B8DFE016D
:10063000E80FF11DE35AFF4FF0829FB7F8940B8F3C
:10064000EA89FB89808180620AC09FB7F894EE89AD
:10065000FF896083E889F989808183708064808361
:100660009FBF81E090E0DF91CF911F910F91FF90AC
:10067000EF900895CF93DF93EC01888D8823C9F024
:10068000EA89FB89808185FD05C0A889B9898C919B
:1006900086FD0FC00FB607FCF5CF808185FFF2CF36
:1006A000A889B9898C9185FFEDCFCE010E94CB023C
:1006B000E7CFDF91CF91089580E090E0892B29F07A
:1006C0000E94C10281110C9400000895009769F006
:1006D000FC0101900020E9F73197AF01481B590B4D
:1006E000BC0186E891E00C94560280E090E0089509
:1006F00086E191E00C9466038F929F92AF92BF9235
:10070000CF92DF92EF92FF920F931F93CF93DF93DD
:10071000CDB7DEB7A1970FB6F894DEBF0FBECDBF41
:100720006C01990FEE08FF08F7FE2BC06DE286E81A
:1007300091E00E94ED028C0122273327A9012C1998
:100740003D094E095F0919A2CE0181967C019AE00C
:10075000892E912CA12CB12CCA01B901A5019401BB
:100760000E944907605DF70162937F012115310501
:100770004105510589F7CF010E946603800F911F43
:100780001DC0A701960119A28E010F5D1F4F8AE0BF
:10079000C82ED12CE12CF12CCA01B901A701960178
:1007A0000E944907605DF80162938F0121153105B0
:1007B0004105510589F7CF010E946603A1960FB646
:1007C000F894DEBF0FBECDBFDF91CF911F910F9187
:1007D000FF90EF90DF90CF90BF90AF909F908F9061
:1007E00008950E9471071F920F920FB60F92112465
:1007F0002F933F938F939F93AF93BF9380917E01ED
:1008000090917F01A0918001B091810130917D0193
:1008100023E0230F2D3720F40196A11DB11D05C043
:1008200026E8230F0296A11DB11D20937D01809320
:100830007E0190937F01A0938001B093810180910C
:10084000820190918301A0918401B091850101966C
:10085000A11DB11D8093820190938301A093840117
:10086000B0938501BF91AF919F918F913F912F914F
:100870000F900FBE0F901F9018951F920F920FB6FA
:100880000F9211242F933F934F935F936F937F9316
:100890008F939F93AF93BF93EF93FF93E0910201E8
:1008A000F09103010995FF91EF91BF91AF919F9155
:1008B0008F917F916F915F914F913F912F910F9009
:1008C0000FBE0F901F9018951F920F920FB60F92A8
:1008D00011242F933F934F935F936F937F938F9345
:1008E0009F93AF93BF93EF93FF93E0910001F0913B
:1008F00001010995FF91EF91BF91AF919F918F9168
:100900007F916F915F914F913F912F910F900FBE0B
:100910000F901F9018951F920F920FB60F921124EF
:100920002F933F934F935F936F937F938F939F93F7
:10093000AF93BF93EF93FF9386E891E00E94CB02C1
:10094000FF91EF91BF91AF919F918F917F916F91A7
:100950005F914F913F912F910F900FBE0F901F907D
:1009600018951F920F920FB60F9211242F938F9309
:100970009F93EF93FF93E0919601F091970180810F
:10098000E0919C01F0919D0182FD12C090818091C7
:100990009F018F5F8F732091A001821751F0E0912A
:1009A0009F01F0E0EA57FE4F958F80939F0101C0B1
:1009B0008081FF91EF919F918F912F910F900FBEAA
:1009C0000F901F901895E6E8F1E01382128288EEEE
:1009D00093E0A0E0B0E084839583A683B78388E0AA
:1009E00091E09183808385EC90E09587848784EC07
:1009F00090E09787868780EC90E0918B808B81ECEC
:100A000090E0938B828B82EC90E0958B848B86ECCC
:100A100090E0978B868B118E128E138E148EE3E2EC
:100A2000F2E0158A148A178A168A84E1DF011D9282
:100A30008A95E9F70895789484B5826084BD84B579
:100A4000816084BD85B5826085BD85B5816085BDC9
:100A500080916E00816080936E0010928100809181
:100A60008100826080938100809181008160809309
:100A70008100809180008160809380008091B1002E
:100A800084608093B1008091B00081608093B00059
:100A900080917A00846080937A0080917A008260ED
:100AA00080937A0080917A00816080937A008091AF
:100AB0007A00806880937A001092C100E0919601DC
:100AC000F091970182E08083E0919201F09193018F
:100AD0001082E0919401F091950180E18083109261
:100AE0009E01E0919A01F0919B0186E08083E09164
:100AF0009801F0919901808180618083E091980153
:100B0000F0919901808188608083E0919801F09153
:100B10009901808180688083E0919801F09199012A
:100B200080818F7D808362E082E00E945D0162E0CF
:100B300083E00E945D0162E087E00E945D0182E047
:100B400090E090935F0180935E0183E090E090934A
:100B500061018093600187E090E09093630180934E
:100B600062011092700110926F0110927201109246
:100B7000710181E080936E011092730110927901EE
:100B80001092780110927401109275011092760102
:100B900010927701E4EAF0E0E491F0E0EE0FFF1F3D
:100BA000EC57FF4FA591B491B0936501A0936401F8
:100BB000E5EAF0E0E491F0E0EE0FFF1FEC57FF4FA5
:100BC000859194919093670180936601E9EAF0E042
:100BD000E491F0E0EE0FFF1FEC57FF4FC591D49169
:100BE000D0936901C0936801E8EBF0E084918093B1
:100BF0006A01E9EBF0E0E491E0936B01EDEBF0E0EA
:100C0000249120936C0110927B0110927A01EBE306
:100C1000FFE13197F1F73C91382391E009F490E03E
:100C2000EC91E82309F09260E881E22381E009F485
:100C300080E080937C0190936D018EE591E090932C
:100C40004B0180934A0180E00E94F20081E00E9403
:100C5000F20061E084E00E945D0161E085E00E94B5
:100C60005D0161E086E00E945D0161E084E00E9438
:100C7000100160E085E00E94100189E191E00E948E
:100C800066030E94780384E090E09093570180937C
:100C9000560185E090E0909359018093580186E0D9
:100CA00090E090935D0180935C018EE090E09093E2
:100CB0005B0180935A0161E084E00E945D0161E084
:100CC000809158010E945D0160E080915A010E946C
:100CD0005D0161E080915C010E945D01F8941091DA
:100CE00073017894F894C0916F01D0917001809154
:100CF0007A0190917B01C80FD91F789486E291E028
:100D00000E946603CE010E947C0382E391E00E9470
:100D10006603812F90E00E947C030E94780361E0CB
:100D2000809158010E94100160E0809156010E945C
:100D3000100160E470E080915C010E9499010E94C2
:100D40001D02F894109173017894F894C0916F018A
:100D5000D091700180917A0190917B01C80FD91FC9
:100D6000789485E391E00E946603CE010E947C03A3
:100D700082E391E00E946603812F90E00E947C0351
:100D80000E94780360E0809158010E94100161E0A8
:100D9000809156010E94100160E470E080915C0136
:100DA0000E9499010E941D02F89410917301789499
:100DB000F894C0916F01D091700180917A01909167
:100DC0007B01C80FD91F78948FE391E00E946603DE
:100DD000CE010E947C0382E391E00E946603812F92
:100DE00090E00E947C030E94780360E080915801AB
:100DF0000E94100161E0809156010E94100160E0A4
:100E000070E080915C010E9499018FB7F894809006
:100E10007E0190907F01A0908001B09081018FBFF2
:100E200083E2E82E82E0F82E00E010E080913702A5
:100E3000909138020817190704F5F701C191D19173
:100E40007F01E881F9810190F081E02DB501A401D5
:100E5000CE010995882371F0E881F9810280F38140
:100E6000E02DB501A401CE01099510923A0210922D
:100E700039020CC00F5F1F4FD9CF8091390290917A
:100E80003A02019690933A02809339020E945C03E1
:100E9000BCCFA1E21A2EAA1BBB1BFD010DC0AA1FCD
:100EA000BB1FEE1FFF1FA217B307E407F50720F0D3
:100EB000A21BB30BE40BF50B661F771F881F991F4E
:100EC0001A9469F760957095809590959B01AC0197
:100ED000BD01CF010895EE0FFF1F0590F491E02DA5
:100EE000099481E090E0F8940C947607F894FFCF91
:100EF0005502550200000000ED02560284023A033A
:100F0000B5029302A7020D0A0048656C6C6F20576A
:100F10006F726C642100537461727420706F733A45
:100F200020002C20004D696420706F733A2000452A
:0A0F30006E6420706F733A20000019
:00000001FF
