:100000000C9470000C94C4030C949D030C94980001
:100010000C9498000C9498000C9498000C94980000
:100020000C9498000C9498000C9498000C949800F0
:100030000C9498000C9498000C9498000C949800E0
:100040000C9453030C9498000C9411040C94EB033F
:100050000C9498000C9498000C9498000C949800C0
:100060000C9498000C949800720178017E0178013C
:1000700096018A01720172018A01960178017E015E
:100080007801720100000000230026002900000012
:100090000000240027002A0000000000250028009E
:1000A0002B000404040404040404020202020202F9
:1000B000030303030303010204081020408001022C
:1000C00004081020010204081020000000080002AB
:1000D00001000003040700000000000000001406F7
:1000E00011241FBECFEFD8E0DEBFCDBF11E0A0E0EE
:1000F000B1E0E0EEFCE002C005900D92AA31B1073C
:10010000D9F724E0AAE1B1E001C01D92A037B207FF
:10011000E1F710E0C0E7D0E004C02197FE010E94A3
:100120006306CF36D107C9F70E9443040C946E06CC
:100130000C9400008230C8F4E82FF0E0EE0FFF1FAF
:10014000E050FF4F71836083813041F080916900FE
:100150008C7F816080936900E89A0895809169009E
:10016000837F846080936900E99A089590E0FC01A0
:10017000E653FF4F2491FC01EA54FF4F3491FC01F8
:10018000EE55FF4FE491EE2309F43CC0222339F1F0
:10019000233091F038F42130A9F0223001F584B5F4
:1001A0008F7D12C0273091F02830A1F02430B9F4AF
:1001B000809180008F7D03C0809180008F77809335
:1001C00080000DC084B58F7784BD09C08091B000D8
:1001D0008F7703C08091B0008F7D8093B000F0E0F6
:1001E000EE0FFF1FE856FF4FA591B4919FB7F8940B
:1001F000611104C08C913095382302C0EC913E2BE4
:100200003C939FBF0895CF93DF9390E0FC01EA54A5
:10021000FF4F2491FC01EE55FF4F8491882361F13B
:1002200090E0880F991FFC01E257FF4FC591D491D0
:10023000FC01E856FF4FA591B491611109C09FB729
:10024000F8948881209582238883EC912E230BC01B
:10025000623061F49FB7F8948881322F3095832300
:100260008883EC912E2B2C939FBF06C08FB7F894F8
:10027000E8812E2B28838FBFDF91CF910895A09125
:100280001A01B0911B011696ED91FC9117972081F0
:100290001896ED91FC91199790811D968C911D9760
:1002A00089231F964C911F97E42FE3701C969C9115
:1002B0001C97922309F0E4608111E8608E2F90E092
:1002C00095958795959587951F968C931F974E2F9B
:1002D00050E0FA013197EE30F10540F5EC5CFF4F4C
:1002E0000C94630651968D919C91529701970BC087
:1002F00051968D919C915297019611C051968D9176
:100300009C915297029752969C938E935197509638
:100310001C92089551968D919C91529702965296F7
:100320009C938E93519781E050968C930895E09121
:100330001A01F0911B01A285B3859C9186858923C2
:1003400021E009F420E081899289AC0197FF04C083
:1003500044275527481B590B453C5940B4F0408968
:10036000642F70E030E06217730779F021E0258B8D
:10037000938F828F128A118A83899489442311F082
:10038000019601C00197948B838B08950895CF92B5
:10039000DF92EF92FF920F931F93CF93DF936C0145
:1003A0007A018B01C0E0D0E0CE15DF0581F0D801E5
:1003B0006D918D01D601ED91FC910190F081E02DC0
:1003C000C6010995892B11F02196EECF7E01C70158
:1003D000DF91CF911F910F91FF90EF90DF90CF9021
:1003E0000895089580E090E00895FC01538D448DB8
:1003F000252F30E0842F90E0821B930B541710F0D0
:10040000CF96089501970895FC01918D828D9817DC
:1004100061F0828DDF01A80FB11D5D968C91928DE8
:100420009F5F9F73928F90E008958FEF9FEF0895E5
:10043000FC01918D828D981731F0828DE80FF11DAE
:10044000858D90E008958FEF9FEF0895FC01918DC9
:10045000228D892F90E0805C9F4F821B91098F73C2
:100460009927089583ED93E00E94260221E0892BCD
:1004700009F420E0822F0895FC01848DDF01A80F8C
:10048000B11DA35ABF4F2C91848D90E001968F73BC
:100490009927848FA689B7892C93A089B1898C91DB
:1004A000837080648C93938D848D981306C002882A
:1004B000F389E02D80818F7D80830895EF92FF92F4
:1004C0000F931F93CF93DF93EC0181E0888F9B8D77
:1004D0008C8D981305C0E889F989808185FD26C037
:1004E000F62E0B8D10E00F5F1F4F0F731127E02EBC
:1004F0008C8DE8120CC00FB607FCFACFE889F98999
:10050000808185FFF5CFCE010E943C02F1CF8B8D1B
:10051000FE01E80FF11DE35AFF4FF0829FB7F894F8
:100520000B8FEA89FB89808180620AC09FB7F894AB
:10053000EE89FF896083E889F9898081837080640E
:1005400080839FBF81E090E0DF91CF911F910F9159
:10055000FF90EF900895CF93DF93EC01888D88236F
:10056000C9F0EA89FB89808185FD05C0A889B98920
:100570008C9186FD0FC00FB607FCF5CF808185FFFB
:10058000F2CFA889B9898C9185FFEDCFCE010E9469
:100590003C02E7CFDF91CF91089580E090E0892B76
:1005A00029F00E94320281110C94000008958F926C
:1005B0009F92AF92BF920F931F93CF93DF93CDB7CC
:1005C000DEB7A1970FB6F894DEBF0FBECDBF19A25C
:1005D000423008F44AE08E010F5D1F4F842E912CAB
:1005E000A12CB12CA50194010E944106E62FB9016E
:1005F000CA0101501109EA3014F4E05D01C0E95C60
:10060000D801EC93232B242B252B61F70115110521
:1006100071F0F80101900020E9F73197AF01401B1C
:10062000510BB80183ED93E00E94C70102C080E046
:1006300090E0A1960FB6F894DEBF0FBECDBFDF915C
:10064000CF911F910F91BF90AF909F908F90089581
:10065000CF92DF92EF92FF92CF93DF936B017C01F9
:100660006DE283ED93E00E945E02EC01662777273E
:10067000CB016C197D098E099F094AE00E94D702BF
:100680008C0F9D1FDF91CF91FF90EF90DF90CF9067
:10069000089542E050E066E171E083ED93E00C9450
:1006A000C7010E9469061F920F920FB60F92112484
:1006B0002F933F938F939F93AF93BF938091CF03DB
:1006C0009091D003A091D103B091D2033091CE0389
:1006D00023E0230F2D3720F40196A11DB11D05C085
:1006E00026E8230F0296A11DB11D2093CE0380930F
:1006F000CF039093D003A093D103B093D203809102
:10070000CA039091CB03A091CC03B091CD03019685
:10071000A11DB11D8093CA039093CB03A093CC037A
:10072000B093CD03BF91AF919F918F913F912F9146
:100730000F900FBE0F901F9018951F920F920FB63B
:100740000F9211242F933F934F935F936F937F9357
:100750008F939F93AF93BF93EF93FF93E091020129
:10076000F09103010995FF91EF91BF91AF919F9196
:100770008F917F916F915F914F913F912F910F904A
:100780000FBE0F901F9018951F920F920FB60F92E9
:1007900011242F933F934F935F936F937F938F9386
:1007A0009F93AF93BF93EF93FF93E0910001F0917C
:1007B00001010995FF91EF91BF91AF919F918F91A9
:1007C0007F916F915F914F913F912F910F900FBE4D
:1007D0000F901F9018951F920F920FB60F92112431
:1007E0002F933F934F935F936F937F938F939F9339
:1007F000AF93BF93EF93FF9383ED93E00E943C028E
:10080000FF91EF91BF91AF919F918F917F916F91E8
:100810005F914F913F912F910F900FBE0F901F90BE
:1008200018951F920F920FB60F9211242F938F934A
:100830009F93EF93FF93E091E303F091E4038081B2
:10084000E091E903F091EA0382FD12C0908180916A
:10085000EC038F5F8F732091ED03821751F0E091CD
:10086000EC03F0E0ED52FC4F958F8093EC0301C058
:100870008081FF91EF919F918F912F910F900FBEEB
:100880000F901F901895789484B5826084BD84B5CC
:10089000816084BD85B5826085BD85B5816085BD7B
:1008A00080916E00816080936E0010928100809133
:1008B00081008260809381008091810081608093BB
:1008C0008100809180008160809380008091B100E0
:1008D00084608093B1008091B00081608093B0000B
:1008E00080917A00846080937A0080917A0082609F
:1008F00080937A0080917A00816080937A00809161
:100900007A00806880937A001092C100E091E3033E
:10091000F091E40382E08083E091DF03F091E00353
:100920001082E091E103F091E20380E18083109274
:10093000EB03E091E703F091E80386E08083E09128
:10094000E503F091E603808180618083E091E50317
:10095000F091E603808188608083E091E503F09167
:10096000E603808180688083E091E503F091E603EF
:1009700080818F7D808362E082E00E94030162E0DB
:1009800083E00E94030162E087E00E94030182E0AD
:1009900090E0909327018093260183E090E090936C
:1009A00029018093280187E090E090932B018093A8
:1009B0002A01109238011092370110923A011092D8
:1009C000390181E08093360110923B011092410180
:1009D0001092400110923C0110923D0110923E0194
:1009E00010923F01E4EAF0E0E491F0E0EE0FFF1F27
:1009F000EC57FF4FA591B491B0932D01A0932C011A
:100A0000E5EAF0E0E491F0E0EE0FFF1FEC57FF4F56
:100A10008591949190932F0180932E01E9EAF0E063
:100A2000E491F0E0EE0FFF1FEC57FF4F859194919A
:100A30009093310180933001E8EBF0E08491809352
:100A40003201E9EBF0E0E491E0933301EDEBF0E00B
:100A5000E491E09334011092430110924201EBE3E0
:100A6000FFE13197F1F72C91282391E009F490E010
:100A7000EC91E82309F092609093350186E291E0D1
:100A800090931B0180931A016FE371E080E00E9454
:100A90009A006FE371E081E00E949A0067E971E0DB
:100AA0008FEF0E949A0061E084E00E94030161E000
:100AB00085E00E94030161E086E00E94030161E09D
:100AC00084E00E94B60060E085E00E94B6002FB787
:100AD000F8948091CF039091D003A091D103B0916D
:100AE000D2032FBF4091C6035091C7036091C80342
:100AF0007091C903481759076A077B0708F091C02E
:100B00008091C4039091C503009731F461E086E0C1
:100B10000E94030161E008C08035910549F461E05D
:100B200086E00E94030160E086E00E94B6003BC0C0
:100B3000803A9105C1F52FB7F8946091CF03709179
:100B4000D0038091D1039091D2032FBF4AE00E943D
:100B5000D7020E944903C4E4D1E0C12CD12C760114
:100B60004AE0C701B6010E94D70269E083ED93E035
:100B70000E945E02699179918991999197FF03C0D2
:100B80000E94280303C04AE00E94D7020E94490342
:100B90008FEFC81AD80AE80AF80A80EAC816D10402
:100BA000E104F104E9F68091C4039091C503803A11
:100BB0009105DCF4F894409137015091380120916F
:100BC000420130914301240F351F7894880F991FFB
:100BD000880F991FFC01EC5BFE4FC901330FAA0B74
:100BE000BB0B80839183A283B3838091C4039091D4
:100BF000C50301969093C5038093C4038091C603F7
:100C00009091C703A091C803B091C9030A96A11D92
:100C1000B11D8093C6039093C703A093C803B093FC
:100C2000C9030E94CD0253CFE3EDF3E01382128299
:100C300088EE93E0A0E0B0E084839583A683B78339
:100C400088E091E09183808385EC90E095878487AC
:100C500084EC90E09787868780EC90E0918B808B86
:100C600081EC90E0938B828B82EC90E0958B848B6F
:100C700086EC90E0978B868B118E128E138E148EDD
:100C80000895A1E21A2EAA1BBB1BFD010DC0AA1FCD
:100C9000BB1FEE1FFF1FA217B307E407F50720F0E5
:100CA000A21BB30BE40BF50B661F771F881F991F60
:100CB0001A9469F760957095809590959B01AC01A9
:100CC000BD01CF010895EE0FFF1F0590F491E02DB7
:100CD000099481E090E0F8940C946E06F894FFCFAC
:100CE000C601C601000000005E02C701F501AB02AB
:0A0CF0002602040218020D0A00009B
:00000001FF
